S00B00004C65642E7372656304
S11300000C9434000C943E000C943E000C943E007E
S11300100C943E000C943E000C943E000C943E0064
S11300200C943E000C943E000C943E000C943E0054
S11300300C943E000C943E000C943E000C943E0044
S11300400C943E000C943E000C943E000C943E0034
S11300500C943E000C943E000C943E000C943E0024
S11300600C943E000C943E0011241FBECFEFD8E048
S1130070DEBFCDBF0E94B2000C94BB000C94000004
S11300802FEF35EA8EE0215030408040E1F700C088
S1130090000095B180E2982795B99FEF25EA3EE0EC
S11300A0915020403040E1F700C0000095B19827FE
S11300B095B99FEF25EA3EE0915020403040E1F7AA
S11300C000C0000095B1892785B908952FEF85EA0E
S11300D09EE0215080409040E1F700C0000095B1BF
S11300E080E2892785B908952FEF35EA8EE0215003
S11300F030408040E1F700C0000095B180E29827CD
S113010095B99FEF25EA3EE0915020403040E1F759
S113011000C0000095B1982795B99FEF21EE34E017
S1130120915020403040E1F700C0000095B198277D
S113013095B99FEF21EE34E0915020403040E1F733
S113014000C0000095B1982795B99FEF21EE34E0E7
S1130150915020403040E1F700C0000095B189275C
S113016085B90895259A2D980E9440000E94660042
S10D01700E947400F9CFF894FFCF49
S9030000FC
