S01000006932635F7363616E2E7372656312
S11300000C9434000C9451000C9451000C94510045
S11300100C9451000C9451000C9451000C94510018
S11300200C9451000C9451000C9451000C94510008
S11300300C9451000C946C000C9451000C945100DD
S11300400C9451000C9451000C9448010C947601CA
S11300500C9451000C9451000C9451000C945100D8
S11300600C9451000C94510011241FBECFEFD8E022
S1130070DEBFCDBF11E0A0E0B1E0E8E2F4E002C0F1
S113008005900D92A432B107D9F721E0A4E2B1E0C2
S113009001C01D92A936B207E1F70E9453000C94E7
S11300A012020C9400000E94F60087E690E00E9481
S11300B0A001E1E8F0E080818A7F80838081826012
S11300C08083EFE6F0E0808181608083789481E032
S11300D091E00E94CE01FFCF1F920F920FB60F92B4
S11300E011241F932F933F934F935F936F937F93A9
S11300F08F939F93AF93BF93EF93FF93CF93DF932C
S113010000D0CDB7DEB780E390E39A8389838091F2
S11301100001823049F08330E1F1813009F04DC0B3
S113012082E0809300014CC088EB0E94050180E0CE
S11301300E9423010E94440189EB0E9405010E9450
S11301402E014AE0BE016F5F7F4F90E00E94DD0107
S1130150CE0101960E94CE010E943901182F0E94FF
S113016044014AE0BE016F5F7F4F812F90E00E94FF
S1130170DD018FE191E00E94CE01CE0101960E9443
S1130180CE0181E291E00E94CE0181E080930001E2
S113019017C040E1BE016F5F7F4F8CE590E00E9485
S11301A0DD01CE0101960E94CE0181E291E00E9420
S11301B0CE0181E08093000103C081E080930001BF
S11301C00F900F90DF91CF91FF91EF91BF91AF917D
S11301D09F918F917F916F915F914F913F912F915B
S11301E01F910F900FBE0F901F90189587B18F7CB1
S11301F087B988B1806388B9E9EBF0E080818C7FAE
S1130200808388E98093B800089594EA9093BC00B1
S1130210ECEBF0E090819923ECF78093BB0084E849
S11302208093BC00ECEBF0E080818823ECF79091A4
S1130230B900987F983129F081E0903419F480E076
S1130240089580E008958093BB0084E88093BC0007
S1130250ECEBF0E080818823ECF7089584EC809344
S1130260BC00ECEBF0E080818823ECF78091BB00CC
S1130270089584E88093BC00ECEBF0E0808188234F
S1130280ECF78091BB00089584E98093BC00089545
S11302901F920F920FB60F9211242F938F939F9357
S11302A0EF93FF938091C0002091C6008C71E09180
S11302B02601EF5FEF7190912501E91739F0E09382
S11302C02601F0E0E75DFE4F208301C082E09091BB
S11302D02401892B80932401FF91EF919F918F91A9
S11302E02F910F900FBE0F901F9018951F920F9291
S11302F00FB60F9211248F939F93EF93FF939091D6
S1130300280180912701981769F0E0912701EF5F98
S1130310EF71E0932701F0E0E75BFE4F808180936B
S1130320C60005C0E1ECF0E080818F7D8083FF9101
S1130330EF919F918F910F900FBE0F901F90189582
S11303401092280110922701109226011092250183
S113035099231CF422E02093C00090789093C50068
S11303608093C40088E98093C10086E08093C20032
S11303700895209128012F5F2F719091270129174B
S1130380E1F3E22FF0E0E75BFE4F80832093280146
S1130390E1ECF0E08081806280830895CF93DF9365
S11303A0EC018881882331F021960E94B90189915A
S11303B08111FBCFDF91CF910895BB274A3031F4EF
S11303C0992322F4BDE2909581959F4F0C94E90105
S11303D0BB27FB015527AA27880F991FAA1FA4171B
S11303E010F0A41B83955051B9F7A05DAA3308F00F
S11303F0A95DA193009779F7B111B1931192CB0143
S11304000C940202DC01FC01672F71917723E1F760
S1130410329704C07C916D9370836291AE17BF07CD
S10B0420C8F30895F894FFCF1E
S1130428010D0A5363616E204932432D62757320AE
S1130438666F7220646576696365733A0D0A002EE7
S1070448002000008C
S9030000FC
